{"abi":[{"type":"constructor","inputs":[],"stateMutability":"nonpayable"},{"type":"function","name":"addCandidate","inputs":[{"name":"electionId","type":"uint256","internalType":"uint256"},{"name":"candidateName","type":"string","internalType":"string"}],"outputs":[],"stateMutability":"nonpayable"},{"type":"function","name":"createElection","inputs":[{"name":"name","type":"string","internalType":"string"},{"name":"uniqueCode","type":"string","internalType":"string"}],"outputs":[],"stateMutability":"nonpayable"},{"type":"function","name":"elections","inputs":[{"name":"","type":"uint256","internalType":"uint256"}],"outputs":[{"name":"id","type":"uint256","internalType":"uint256"},{"name":"name","type":"string","internalType":"string"},{"name":"uniqueCode","type":"string","internalType":"string"},{"name":"isEnded","type":"bool","internalType":"bool"},{"name":"candidatesCount","type":"uint256","internalType":"uint256"},{"name":"leadingCandidateId","type":"uint256","internalType":"uint256"},{"name":"leadingVoteCount","type":"uint256","internalType":"uint256"}],"stateMutability":"view"},{"type":"function","name":"electionsCount","inputs":[],"outputs":[{"name":"","type":"uint256","internalType":"uint256"}],"stateMutability":"view"},{"type":"function","name":"endElection","inputs":[{"name":"electionId","type":"uint256","internalType":"uint256"}],"outputs":[],"stateMutability":"nonpayable"},{"type":"function","name":"owner","inputs":[],"outputs":[{"name":"","type":"address","internalType":"address"}],"stateMutability":"view"},{"type":"function","name":"vote","inputs":[{"name":"electionId","type":"uint256","internalType":"uint256"},{"name":"candidateId","type":"uint256","internalType":"uint256"}],"outputs":[],"stateMutability":"nonpayable"},{"type":"event","name":"CandidateAdded","inputs":[{"name":"electionId","type":"uint256","indexed":true,"internalType":"uint256"},{"name":"candidateId","type":"uint256","indexed":true,"internalType":"uint256"},{"name":"candidateName","type":"string","indexed":false,"internalType":"string"}],"anonymous":false},{"type":"event","name":"ElectionCreated","inputs":[{"name":"electionId","type":"uint256","indexed":true,"internalType":"uint256"},{"name":"name","type":"string","indexed":false,"internalType":"string"},{"name":"uniqueCode","type":"string","indexed":false,"internalType":"string"}],"anonymous":false},{"type":"event","name":"ElectionEnded","inputs":[{"name":"electionId","type":"uint256","indexed":true,"internalType":"uint256"},{"name":"name","type":"string","indexed":false,"internalType":"string"}],"anonymous":false},{"type":"event","name":"ElectionResults","inputs":[{"name":"electionId","type":"uint256","indexed":true,"internalType":"uint256"},{"name":"candidateIds","type":"uint256[]","indexed":false,"internalType":"uint256[]"},{"name":"candidateNames","type":"string[]","indexed":false,"internalType":"string[]"},{"name":"voteCounts","type":"uint256[]","indexed":false,"internalType":"uint256[]"}],"anonymous":false},{"type":"event","name":"ElectionWinner","inputs":[{"name":"electionId","type":"uint256","indexed":true,"internalType":"uint256"},{"name":"candidateId","type":"uint256","indexed":false,"internalType":"uint256"},{"name":"candidateName","type":"string","indexed":false,"internalType":"string"},{"name":"voteCount","type":"uint256","indexed":false,"internalType":"uint256"}],"anonymous":false},{"type":"event","name":"Voted","inputs":[{"name":"electionId","type":"uint256","indexed":true,"internalType":"uint256"},{"name":"candidateId","type":"uint256","indexed":true,"internalType":"uint256"},{"name":"voter","type":"address","indexed":false,"internalType":"address"}],"anonymous":false}],"bytecode":{"object":"0x60806040526000600155348015601457600080fd5b50600080546001600160a01b03191633179055610e16806100366000396000f3fe608060405234801561001057600080fd5b506004361061007d5760003560e01c80639a74c6951161005b5780639a74c695146100f15780639c98bcbb14610108578063b384abef1461011b578063bd27eca01461012e57600080fd5b80631750a3d0146100825780635e6fef01146100975780638da5cb5b146100c6575b600080fd5b61009561009036600461091f565b610141565b005b6100aa6100a5366004610966565b61028d565b6040516100bd97969594939291906109cf565b60405180910390f35b6000546100d9906001600160a01b031681565b6040516001600160a01b0390911681526020016100bd565b6100fa60015481565b6040519081526020016100bd565b610095610116366004610966565b6103dd565b610095610129366004610a21565b61051e565b61009561013c366004610a43565b610728565b6000546001600160a01b031633146101745760405162461bcd60e51b815260040161016b90610a9d565b60405180910390fd5b8160008111801561018757506001548111155b6101a35760405162461bcd60e51b815260040161016b90610ae3565b60008381526002602052604090206003015460ff16156101d55760405162461bcd60e51b815260040161016b90610b1a565b600083815260026020526040812060048101805491929182906101f790610b51565b918290555060408051606081018252828152602080820188815260008385018190528581526007880190925292902081518155915192935091600182019061023f9082610c03565b506040820151816002015590505080857fed8911b3df733b7d5f75724158e54478ea12e30f49c9d31b5261879f5b76586f8660405161027e9190610cc3565b60405180910390a35050505050565b600260205260009081526040902080546001820180549192916102af90610b78565b80601f01602080910402602001604051908101604052809291908181526020018280546102db90610b78565b80156103285780601f106102fd57610100808354040283529160200191610328565b820191906000526020600020905b81548152906001019060200180831161030b57829003601f168201915b50505050509080600201805461033d90610b78565b80601f016020809104026020016040519081016040528092919081815260200182805461036990610b78565b80156103b65780601f1061038b576101008083540402835291602001916103b6565b820191906000526020600020905b81548152906001019060200180831161039957829003601f168201915b50505050600383015460048401546005850154600690950154939460ff9092169390925087565b6000546001600160a01b031633146104075760405162461bcd60e51b815260040161016b90610a9d565b8060008111801561041a57506001548111155b6104365760405162461bcd60e51b815260040161016b90610ae3565b6000828152600260205260409020600381015460ff16156104695760405162461bcd60e51b815260040161016b90610b1a565b60038101805460ff191660011790556005810154156104de5760058101546000818152600783016020526040908190206006840154915186937fbced7644939b490868d1a1832f9d2518803c0ae1b1e5d7a881f30c3ae411c2ab936104d5939192600190920191610d5a565b60405180910390a25b827fbfd28c0c200bf0a3472a6abbea6e68b12a3449f3276bc0d3d8e61360b5bc1f99826001016040516105119190610d83565b60405180910390a2505050565b8160008111801561053157506001548111155b61054d5760405162461bcd60e51b815260040161016b90610ae3565b6000546001600160a01b031633036105a75760405162461bcd60e51b815260206004820152601c60248201527f4f776e6572206973206e6f7420616c6c6f77656420746f20766f746500000000604482015260640161016b565b6000838152600260205260409020600381015460ff16156105da5760405162461bcd60e51b815260040161016b90610b1a565b33600090815260088201602052604090205460ff161561063c5760405162461bcd60e51b815260206004820152601760248201527f596f75206861766520616c726561647920766f7465642e000000000000000000604482015260640161016b565b600083118015610650575080600401548311155b6106915760405162461bcd60e51b815260206004820152601260248201527124b73b30b634b21031b0b73234b230ba329760711b604482015260640161016b565b3360009081526008820160209081526040808320805460ff1916600117905585835260078401909152812060028101805491926106cd83610b51565b91905055508160060154816002015411156106f45760058201849055600281015460068301555b604051338152849086907fd91ecafccf238642dccd41161308b3eebe62a12bc5819daf5164780c221ec95b9060200161027e565b6000546001600160a01b031633146107525760405162461bcd60e51b815260040161016b90610a9d565b6003816040516107629190610d96565b9081526020016040518091039020546000146107c05760405162461bcd60e51b815260206004820152601d60248201527f456c656374696f6e20636f6465206d75737420626520756e697175652e000000604482015260640161016b565b600180549060006107d083610b51565b90915550506001805460008181526002602052604090209081559081016107f78482610c03565b50600281016108068382610c03565b506003808201805460ff191690556000600583018190556006830155600154604051909190610836908590610d96565b9081526020016040518091039020819055506001547feaf9c9dabc2a68b717e3095068d04a84ecace13a1ab18b4499a913c3ab3d28698484604051610511929190610db2565b634e487b7160e01b600052604160045260246000fd5b600082601f8301126108a357600080fd5b813567ffffffffffffffff808211156108be576108be61087c565b604051601f8301601f19908116603f011681019082821181831017156108e6576108e661087c565b816040528381528660208588010111156108ff57600080fd5b836020870160208301376000602085830101528094505050505092915050565b6000806040838503121561093257600080fd5b82359150602083013567ffffffffffffffff81111561095057600080fd5b61095c85828601610892565b9150509250929050565b60006020828403121561097857600080fd5b5035919050565b60005b8381101561099a578181015183820152602001610982565b50506000910152565b600081518084526109bb81602086016020860161097f565b601f01601f19169290920160200192915050565b87815260e0602082015260006109e860e08301896109a3565b82810360408401526109fa81896109a3565b96151560608401525050608081019390935260a083019190915260c0909101529392505050565b60008060408385031215610a3457600080fd5b50508035926020909101359150565b60008060408385031215610a5657600080fd5b823567ffffffffffffffff80821115610a6e57600080fd5b610a7a86838701610892565b93506020850135915080821115610a9057600080fd5b5061095c85828601610892565b60208082526026908201527f4f6e6c7920746865206f776e65722063616e2063616c6c20746869732066756e60408201526531ba34b7b71760d11b606082015260800190565b60208082526018908201527f456c656374696f6e20646f6573206e6f742065786973742e0000000000000000604082015260600190565b6020808252601b908201527f456c656374696f6e2068617320616c726561647920656e6465642e0000000000604082015260600190565b600060018201610b7157634e487b7160e01b600052601160045260246000fd5b5060010190565b600181811c90821680610b8c57607f821691505b602082108103610bac57634e487b7160e01b600052602260045260246000fd5b50919050565b601f821115610bfe576000816000526020600020601f850160051c81016020861015610bdb5750805b601f850160051c820191505b81811015610bfa57828155600101610be7565b5050505b505050565b815167ffffffffffffffff811115610c1d57610c1d61087c565b610c3181610c2b8454610b78565b84610bb2565b602080601f831160018114610c665760008415610c4e5750858301515b600019600386901b1c1916600185901b178555610bfa565b600085815260208120601f198616915b82811015610c9557888601518255948401946001909101908401610c76565b5085821015610cb35787850151600019600388901b60f8161c191681555b5050505050600190811b01905550565b602081526000610cd660208301846109a3565b9392505050565b60008154610cea81610b78565b808552602060018381168015610d075760018114610d2157610d4f565b60ff1985168884015283151560051b880183019550610d4f565b866000528260002060005b85811015610d475781548a8201860152908301908401610d2c565b890184019650505b505050505092915050565b838152606060208201526000610d736060830185610cdd565b9050826040830152949350505050565b602081526000610cd66020830184610cdd565b60008251610da881846020870161097f565b9190910192915050565b604081526000610dc560408301856109a3565b8281036020840152610dd781856109a3565b9594505050505056fea264697066735822122008c21f8e9f04e3db1b1f72969228b351866a8abc4399739f1552b8b6f7cf920064736f6c63430008190033","linkReferences":{}},"methodIdentifiers":{"addCandidate(uint256,string)":"1750a3d0","createElection(string,string)":"bd27eca0","elections(uint256)":"5e6fef01","electionsCount()":"9a74c695","endElection(uint256)":"9c98bcbb","owner()":"8da5cb5b","vote(uint256,uint256)":"b384abef"},"id":0}