{"abi":[{"type":"constructor","inputs":[],"stateMutability":"nonpayable"},{"type":"function","name":"addCandidate","inputs":[{"name":"electionId","type":"uint256","internalType":"uint256"},{"name":"candidateName","type":"string","internalType":"string"}],"outputs":[],"stateMutability":"nonpayable"},{"type":"function","name":"createElection","inputs":[{"name":"name","type":"string","internalType":"string"},{"name":"uniqueCode","type":"string","internalType":"string"}],"outputs":[],"stateMutability":"nonpayable"},{"type":"function","name":"elections","inputs":[{"name":"","type":"uint256","internalType":"uint256"}],"outputs":[{"name":"id","type":"uint256","internalType":"uint256"},{"name":"name","type":"string","internalType":"string"},{"name":"uniqueCode","type":"string","internalType":"string"},{"name":"isEnded","type":"bool","internalType":"bool"},{"name":"candidatesCount","type":"uint256","internalType":"uint256"},{"name":"leadingCandidateId","type":"uint256","internalType":"uint256"},{"name":"leadingVoteCount","type":"uint256","internalType":"uint256"}],"stateMutability":"view"},{"type":"function","name":"electionsCount","inputs":[],"outputs":[{"name":"","type":"uint256","internalType":"uint256"}],"stateMutability":"view"},{"type":"function","name":"endElection","inputs":[{"name":"electionId","type":"uint256","internalType":"uint256"}],"outputs":[],"stateMutability":"nonpayable"},{"type":"function","name":"owner","inputs":[],"outputs":[{"name":"","type":"address","internalType":"address"}],"stateMutability":"view"},{"type":"function","name":"viewAllElections","inputs":[],"outputs":[{"name":"","type":"uint256[]","internalType":"uint256[]"},{"name":"","type":"string[]","internalType":"string[]"}],"stateMutability":"view"},{"type":"function","name":"viewCandidatesInElection","inputs":[{"name":"electionId","type":"uint256","internalType":"uint256"}],"outputs":[{"name":"","type":"uint256[]","internalType":"uint256[]"},{"name":"","type":"string[]","internalType":"string[]"},{"name":"","type":"uint256[]","internalType":"uint256[]"}],"stateMutability":"view"},{"type":"function","name":"vote","inputs":[{"name":"electionId","type":"uint256","internalType":"uint256"},{"name":"candidateId","type":"uint256","internalType":"uint256"}],"outputs":[],"stateMutability":"nonpayable"},{"type":"event","name":"CandidateAdded","inputs":[{"name":"electionId","type":"uint256","indexed":true,"internalType":"uint256"},{"name":"candidateId","type":"uint256","indexed":true,"internalType":"uint256"},{"name":"candidateName","type":"string","indexed":false,"internalType":"string"}],"anonymous":false},{"type":"event","name":"ElectionCreated","inputs":[{"name":"electionId","type":"uint256","indexed":true,"internalType":"uint256"},{"name":"name","type":"string","indexed":false,"internalType":"string"},{"name":"uniqueCode","type":"string","indexed":false,"internalType":"string"}],"anonymous":false},{"type":"event","name":"ElectionEnded","inputs":[{"name":"electionId","type":"uint256","indexed":true,"internalType":"uint256"},{"name":"name","type":"string","indexed":false,"internalType":"string"}],"anonymous":false},{"type":"event","name":"ElectionResults","inputs":[{"name":"electionId","type":"uint256","indexed":true,"internalType":"uint256"},{"name":"candidateIds","type":"uint256[]","indexed":false,"internalType":"uint256[]"},{"name":"candidateNames","type":"string[]","indexed":false,"internalType":"string[]"},{"name":"voteCounts","type":"uint256[]","indexed":false,"internalType":"uint256[]"}],"anonymous":false},{"type":"event","name":"ElectionWinner","inputs":[{"name":"electionId","type":"uint256","indexed":true,"internalType":"uint256"},{"name":"candidateId","type":"uint256","indexed":false,"internalType":"uint256"},{"name":"candidateName","type":"string","indexed":false,"internalType":"string"},{"name":"voteCount","type":"uint256","indexed":false,"internalType":"uint256"}],"anonymous":false},{"type":"event","name":"Voted","inputs":[{"name":"electionId","type":"uint256","indexed":true,"internalType":"uint256"},{"name":"candidateId","type":"uint256","indexed":true,"internalType":"uint256"},{"name":"voter","type":"address","indexed":false,"internalType":"address"}],"anonymous":false}],"bytecode":{"object":"0x60806040526000600155348015601457600080fd5b50600080546001600160a01b03191633179055611496806100366000396000f3fe608060405234801561001057600080fd5b50600436106100935760003560e01c80638da5cb5b116100665780638da5cb5b146101145780639a74c6951461013f5780639c98bcbb14610156578063b384abef14610169578063bd27eca01461017c57600080fd5b80631750a3d0146100985780634196e73c146100ad5780635e6fef01146100cc5780638b7982ba146100f2575b600080fd5b6100ab6100a6366004610e6a565b61018f565b005b6100b56102db565b6040516100c3929190610f97565b60405180910390f35b6100df6100da366004610fc5565b6104fd565b6040516100c39796959493929190610fde565b610105610100366004610fc5565b61064d565b6040516100c393929190611030565b600054610127906001600160a01b031681565b6040516001600160a01b0390911681526020016100c3565b61014860015481565b6040519081526020016100c3565b6100ab610164366004610fc5565b610928565b6100ab610177366004611073565b610a69565b6100ab61018a366004611095565b610c73565b6000546001600160a01b031633146101c25760405162461bcd60e51b81526004016101b9906110ef565b60405180910390fd5b816000811180156101d557506001548111155b6101f15760405162461bcd60e51b81526004016101b990611135565b60008381526002602052604090206003015460ff16156102235760405162461bcd60e51b81526004016101b99061116c565b60008381526002602052604081206004810180549192918290610245906111b9565b918290555060408051606081018252828152602080820188815260008385018190528581526007880190925292902081518155915192935091600182019061028d908261125d565b506040820151816002015590505080857fed8911b3df733b7d5f75724158e54478ea12e30f49c9d31b5261879f5b76586f866040516102cc919061131d565b60405180910390a35050505050565b606080600060015b60015481116103255760008181526002602052604090206003015460ff16610313578161030f816111b9565b9250505b8061031d816111b9565b9150506102e3565b5060008167ffffffffffffffff81111561034157610341610dc7565b60405190808252806020026020018201604052801561036a578160200160208202803683370190505b50905060008267ffffffffffffffff81111561038857610388610dc7565b6040519080825280602002602001820160405280156103bb57816020015b60608152602001906001900390816103a65790505b509050600060015b60015481116104f15760008181526002602052604090206003015460ff166104df57600081815260026020526040902054845185908490811061040857610408611337565b602002602001018181525050600260008281526020019081526020016000206001018054610435906111d2565b80601f0160208091040260200160405190810160405280929190818152602001828054610461906111d2565b80156104ae5780601f10610483576101008083540402835291602001916104ae565b820191906000526020600020905b81548152906001019060200180831161049157829003601f168201915b50505050508383815181106104c5576104c5611337565b602002602001018190525081806104db906111b9565b9250505b806104e9816111b9565b9150506103c3565b50919590945092505050565b6002602052600090815260409020805460018201805491929161051f906111d2565b80601f016020809104026020016040519081016040528092919081815260200182805461054b906111d2565b80156105985780601f1061056d57610100808354040283529160200191610598565b820191906000526020600020905b81548152906001019060200180831161057b57829003601f168201915b5050505050908060020180546105ad906111d2565b80601f01602080910402602001604051908101604052809291908181526020018280546105d9906111d2565b80156106265780601f106105fb57610100808354040283529160200191610626565b820191906000526020600020905b81548152906001019060200180831161060957829003601f168201915b50505050600383015460048401546005850154600690950154939460ff9092169390925087565b60608060608360008111801561066557506001548111155b6106815760405162461bcd60e51b81526004016101b990611135565b60008581526002602052604090206003015460ff16156106e35760405162461bcd60e51b815260206004820181905260248201527f5468697320656c656374696f6e2068617320616c726561647920656e6465642e60448201526064016101b9565b600085815260026020526040812060040154908167ffffffffffffffff81111561070f5761070f610dc7565b604051908082528060200260200182016040528015610738578160200160208202803683370190505b50905060008267ffffffffffffffff81111561075657610756610dc7565b60405190808252806020026020018201604052801561078957816020015b60608152602001906001900390816107745790505b50905060008367ffffffffffffffff8111156107a7576107a7610dc7565b6040519080825280602002602001820160405280156107d0578160200160208202803683370190505b50905060015b8481116109185760008a8152600260209081526040808320848452600701909152902080548561080760018561134d565b8151811061081757610817611337565b602002602001018181525050806001018054610832906111d2565b80601f016020809104026020016040519081016040528092919081815260200182805461085e906111d2565b80156108ab5780601f10610880576101008083540402835291602001916108ab565b820191906000526020600020905b81548152906001019060200180831161088e57829003601f168201915b5050505050846001846108be919061134d565b815181106108ce576108ce611337565b60209081029190910101526002810154836108ea60018561134d565b815181106108fa576108fa611337565b60209081029190910101525080610910816111b9565b9150506107d6565b5091989097509095509350505050565b6000546001600160a01b031633146109525760405162461bcd60e51b81526004016101b9906110ef565b8060008111801561096557506001548111155b6109815760405162461bcd60e51b81526004016101b990611135565b6000828152600260205260409020600381015460ff16156109b45760405162461bcd60e51b81526004016101b99061116c565b60038101805460ff19166001179055600581015415610a295760058101546000818152600783016020526040908190206006840154915186937fbced7644939b490868d1a1832f9d2518803c0ae1b1e5d7a881f30c3ae411c2ab93610a209391926001909201916113e3565b60405180910390a25b827fbfd28c0c200bf0a3472a6abbea6e68b12a3449f3276bc0d3d8e61360b5bc1f9982600101604051610a5c919061140c565b60405180910390a2505050565b81600081118015610a7c57506001548111155b610a985760405162461bcd60e51b81526004016101b990611135565b6000546001600160a01b03163303610af25760405162461bcd60e51b815260206004820152601c60248201527f4f776e6572206973206e6f7420616c6c6f77656420746f20766f74650000000060448201526064016101b9565b6000838152600260205260409020600381015460ff1615610b255760405162461bcd60e51b81526004016101b99061116c565b33600090815260088201602052604090205460ff1615610b875760405162461bcd60e51b815260206004820152601760248201527f596f75206861766520616c726561647920766f7465642e00000000000000000060448201526064016101b9565b600083118015610b9b575080600401548311155b610bdc5760405162461bcd60e51b815260206004820152601260248201527124b73b30b634b21031b0b73234b230ba329760711b60448201526064016101b9565b3360009081526008820160209081526040808320805460ff191660011790558583526007840190915281206002810180549192610c18836111b9565b9190505550816006015481600201541115610c3f5760058201849055600281015460068301555b604051338152849086907fd91ecafccf238642dccd41161308b3eebe62a12bc5819daf5164780c221ec95b906020016102cc565b6000546001600160a01b03163314610c9d5760405162461bcd60e51b81526004016101b9906110ef565b600381604051610cad919061141f565b908152602001604051809103902054600014610d0b5760405162461bcd60e51b815260206004820152601d60248201527f456c656374696f6e20636f6465206d75737420626520756e697175652e00000060448201526064016101b9565b60018054906000610d1b836111b9565b9091555050600180546000818152600260205260409020908155908101610d42848261125d565b5060028101610d51838261125d565b506003808201805460ff191690556000600583018190556006830155600154604051909190610d8190859061141f565b9081526020016040518091039020819055506001547feaf9c9dabc2a68b717e3095068d04a84ecace13a1ab18b4499a913c3ab3d28698484604051610a5c92919061143b565b634e487b7160e01b600052604160045260246000fd5b600082601f830112610dee57600080fd5b813567ffffffffffffffff80821115610e0957610e09610dc7565b604051601f8301601f19908116603f01168101908282118183101715610e3157610e31610dc7565b81604052838152866020858801011115610e4a57600080fd5b836020870160208301376000602085830101528094505050505092915050565b60008060408385031215610e7d57600080fd5b82359150602083013567ffffffffffffffff811115610e9b57600080fd5b610ea785828601610ddd565b9150509250929050565b60008151808452602080850194506020840160005b83811015610ee257815187529582019590820190600101610ec6565b509495945050505050565b60005b83811015610f08578181015183820152602001610ef0565b50506000910152565b60008151808452610f29816020860160208601610eed565b601f01601f19169290920160200192915050565b60008282518085526020808601955060208260051b8401016020860160005b84811015610f8a57601f19868403018952610f78838351610f11565b98840198925090830190600101610f5c565b5090979650505050505050565b604081526000610faa6040830185610eb1565b8281036020840152610fbc8185610f3d565b95945050505050565b600060208284031215610fd757600080fd5b5035919050565b87815260e060208201526000610ff760e0830189610f11565b82810360408401526110098189610f11565b96151560608401525050608081019390935260a083019190915260c0909101529392505050565b6060815260006110436060830186610eb1565b82810360208401526110558186610f3d565b905082810360408401526110698185610eb1565b9695505050505050565b6000806040838503121561108657600080fd5b50508035926020909101359150565b600080604083850312156110a857600080fd5b823567ffffffffffffffff808211156110c057600080fd5b6110cc86838701610ddd565b935060208501359150808211156110e257600080fd5b50610ea785828601610ddd565b60208082526026908201527f4f6e6c7920746865206f776e65722063616e2063616c6c20746869732066756e60408201526531ba34b7b71760d11b606082015260800190565b60208082526018908201527f456c656374696f6e20646f6573206e6f742065786973742e0000000000000000604082015260600190565b6020808252601b908201527f456c656374696f6e2068617320616c726561647920656e6465642e0000000000604082015260600190565b634e487b7160e01b600052601160045260246000fd5b6000600182016111cb576111cb6111a3565b5060010190565b600181811c908216806111e657607f821691505b60208210810361120657634e487b7160e01b600052602260045260246000fd5b50919050565b601f821115611258576000816000526020600020601f850160051c810160208610156112355750805b601f850160051c820191505b8181101561125457828155600101611241565b5050505b505050565b815167ffffffffffffffff81111561127757611277610dc7565b61128b8161128584546111d2565b8461120c565b602080601f8311600181146112c057600084156112a85750858301515b600019600386901b1c1916600185901b178555611254565b600085815260208120601f198616915b828110156112ef578886015182559484019460019091019084016112d0565b508582101561130d5787850151600019600388901b60f8161c191681555b5050505050600190811b01905550565b6020815260006113306020830184610f11565b9392505050565b634e487b7160e01b600052603260045260246000fd5b81810381811115611360576113606111a3565b92915050565b60008154611373816111d2565b80855260206001838116801561139057600181146113aa576113d8565b60ff1985168884015283151560051b8801830195506113d8565b866000528260002060005b858110156113d05781548a82018601529083019084016113b5565b890184019650505b505050505092915050565b8381526060602082015260006113fc6060830185611366565b9050826040830152949350505050565b6020815260006113306020830184611366565b60008251611431818460208701610eed565b9190910192915050565b60408152600061144e6040830185610f11565b8281036020840152610fbc8185610f1156fea264697066735822122012fe9862fb9e551966d3e4f95bf5dc8553d6970499a176b90e96f022d426c3db64736f6c63430008190033","linkReferences":{}},"methodIdentifiers":{"addCandidate(uint256,string)":"1750a3d0","createElection(string,string)":"bd27eca0","elections(uint256)":"5e6fef01","electionsCount()":"9a74c695","endElection(uint256)":"9c98bcbb","owner()":"8da5cb5b","viewAllElections()":"4196e73c","viewCandidatesInElection(uint256)":"8b7982ba","vote(uint256,uint256)":"b384abef"},"id":0}